{
  "contractName": "A",
  "abi": [
    {
      "anonymous": false,
      "inputs": [
        {
          "indexed": false,
          "internalType": "uint256",
          "name": "a",
          "type": "uint256"
        },
        {
          "indexed": false,
          "internalType": "string",
          "name": "b",
          "type": "string"
        }
      ],
      "name": "A",
      "type": "event"
    },
    {
      "anonymous": false,
      "inputs": [
        {
          "indexed": false,
          "internalType": "uint256",
          "name": "a",
          "type": "uint256"
        },
        {
          "indexed": false,
          "internalType": "string",
          "name": "b",
          "type": "string"
        }
      ],
      "name": "B",
      "type": "event"
    },
    {
      "inputs": [],
      "name": "add",
      "outputs": [],
      "stateMutability": "nonpayable",
      "type": "function"
    },
    {
      "inputs": [],
      "name": "add2",
      "outputs": [],
      "stateMutability": "nonpayable",
      "type": "function"
    }
  ],
  "bytecode": "0x608060405234801561001057600080fd5b506102be806100206000396000f3fe608060405234801561001057600080fd5b50600436106100365760003560e01c80634f2be91f1461003b5780636c1f222f14610045575b600080fd5b61004361004f565b005b61004d6100a1565b005b6000808154809291906100619061012c565b91905055507f2b7296b450548d9ede162f6f3b057a12f28b855286624e8ff3373ee740f5c44460005460405161009791906101e0565b60405180910390a1565b6000808154809291906100b39061012c565b91905055507fd4bc0f595e4183d356878c618573694175714fd1f680f183cd086524fdce83536000546040516100e9919061025a565b60405180910390a1565b7f4e487b7100000000000000000000000000000000000000000000000000000000600052601160045260246000fd5b6000819050919050565b600061013782610122565b91507fffffffffffffffffffffffffffffffffffffffffffffffffffffffffffffffff8203610169576101686100f3565b5b600182019050919050565b61017d81610122565b82525050565b600082825260208201905092915050565b7f4556454e54204100000000000000000000000000000000000000000000000000600082015250565b60006101ca600783610183565b91506101d582610194565b602082019050919050565b60006040820190506101f56000830184610174565b8181036020830152610206816101bd565b905092915050565b7f4556454e54204200000000000000000000000000000000000000000000000000600082015250565b6000610244600783610183565b915061024f8261020e565b602082019050919050565b600060408201905061026f6000830184610174565b818103602083015261028081610237565b90509291505056fea26469706673582212202efea52ab5d5ad09b91356228277563982e5ab2264deeefd6f08a1ab5f5558f964736f6c63430008110033",
  "immutableReferences": {},
  "source": "// SPDX-License-Identifier: MIT\npragma solidity >=0.4.22 <0.9.0;\n\ncontract A {\n  event A(uint a,string b);\n  event B(uint a, string b);\n\n  uint count;\n\n  function add() public {\n    count++;\n    emit A(count,\"EVENT A\");\n  }\n\n  function add2() public {\n    count++;\n    emit B(count,\"EVENT B\");\n  }\n\n\n\n}\n",
  "sourcePath": "C:\\Users\\j\\Desktop\\truffle\\ex5\\contracts\\A.sol",
  "compiler": {
    "name": "solc",
    "version": "0.8.17+commit.8df45f5f.Emscripten.clang"
  },
  "schemaVersion": "3.4.11",
  "updatedAt": "2023-01-04T00:44:26.379Z",
  "networkType": "ethereum",
  "devdoc": {
    "kind": "dev",
    "methods": {},
    "version": 1
  },
  "userdoc": {
    "kind": "user",
    "methods": {},
    "version": 1
  }
}