{
  "contractName": "A",
  "abi": [
    {
      "inputs": [
        {
          "internalType": "string",
          "name": "_name",
          "type": "string"
        },
        {
          "internalType": "uint256",
          "name": "_score",
          "type": "uint256"
        }
      ],
      "name": "setStudent",
      "outputs": [],
      "stateMutability": "nonpayable",
      "type": "function"
    },
    {
      "inputs": [
        {
          "internalType": "uint256",
          "name": "_n",
          "type": "uint256"
        }
      ],
      "name": "getStudent",
      "outputs": [
        {
          "components": [
            {
              "internalType": "uint256",
              "name": "num",
              "type": "uint256"
            },
            {
              "internalType": "string",
              "name": "name",
              "type": "string"
            },
            {
              "internalType": "uint256",
              "name": "score",
              "type": "uint256"
            }
          ],
          "internalType": "struct A.Student",
          "name": "",
          "type": "tuple"
        }
      ],
      "stateMutability": "view",
      "type": "function"
    },
    {
      "inputs": [],
      "name": "getLen",
      "outputs": [
        {
          "internalType": "uint256",
          "name": "",
          "type": "uint256"
        }
      ],
      "stateMutability": "view",
      "type": "function"
    }
  ],
  "bytecode": "0x608060405234801561001057600080fd5b5061092f806100206000396000f3fe608060405234801561001057600080fd5b50600436106100415760003560e01c80634a90be5714610046578063642f9163146100645780639b4d52dd14610094575b600080fd5b61004e6100b0565b60405161005b919061025f565b60405180910390f35b61007e600480360381019061007991906102ba565b6100bc565b60405161008b91906103d6565b60405180910390f35b6100ae60048036038101906100a9919061052d565b61019e565b005b60008080549050905090565b6100c4610225565b600082815481106100d8576100d7610589565b5b90600052602060002090600302016040518060600160405290816000820154815260200160018201805461010b906105e7565b80601f0160208091040260200160405190810160405280929190818152602001828054610137906105e7565b80156101845780601f1061015957610100808354040283529160200191610184565b820191906000526020600020905b81548152906001019060200180831161016757829003601f168201915b505050505081526020016002820154815250509050919050565b6000604051806060016040528060016000805490506101bd9190610647565b81526020018481526020018381525090806001815401808255809150506001900390600052602060002090600302016000909190919091506000820151816000015560208201518160010190816102149190610827565b506040820151816002015550505050565b60405180606001604052806000815260200160608152602001600081525090565b6000819050919050565b61025981610246565b82525050565b60006020820190506102746000830184610250565b92915050565b6000604051905090565b600080fd5b600080fd5b61029781610246565b81146102a257600080fd5b50565b6000813590506102b48161028e565b92915050565b6000602082840312156102d0576102cf610284565b5b60006102de848285016102a5565b91505092915050565b6102f081610246565b82525050565b600081519050919050565b600082825260208201905092915050565b60005b83811015610330578082015181840152602081019050610315565b60008484015250505050565b6000601f19601f8301169050919050565b6000610358826102f6565b6103628185610301565b9350610372818560208601610312565b61037b8161033c565b840191505092915050565b600060608301600083015161039e60008601826102e7565b50602083015184820360208601526103b6828261034d565b91505060408301516103cb60408601826102e7565b508091505092915050565b600060208201905081810360008301526103f08184610386565b905092915050565b600080fd5b600080fd5b7f4e487b7100000000000000000000000000000000000000000000000000000000600052604160045260246000fd5b61043a8261033c565b810181811067ffffffffffffffff8211171561045957610458610402565b5b80604052505050565b600061046c61027a565b90506104788282610431565b919050565b600067ffffffffffffffff82111561049857610497610402565b5b6104a18261033c565b9050602081019050919050565b82818337600083830152505050565b60006104d06104cb8461047d565b610462565b9050828152602081018484840111156104ec576104eb6103fd565b5b6104f78482856104ae565b509392505050565b600082601f830112610514576105136103f8565b5b81356105248482602086016104bd565b91505092915050565b6000806040838503121561054457610543610284565b5b600083013567ffffffffffffffff81111561056257610561610289565b5b61056e858286016104ff565b925050602061057f858286016102a5565b9150509250929050565b7f4e487b7100000000000000000000000000000000000000000000000000000000600052603260045260246000fd5b7f4e487b7100000000000000000000000000000000000000000000000000000000600052602260045260246000fd5b600060028204905060018216806105ff57607f821691505b602082108103610612576106116105b8565b5b50919050565b7f4e487b7100000000000000000000000000000000000000000000000000000000600052601160045260246000fd5b600061065282610246565b915061065d83610246565b925082820190508082111561067557610674610618565b5b92915050565b60008190508160005260206000209050919050565b60006020601f8301049050919050565b600082821b905092915050565b6000600883026106dd7fffffffffffffffffffffffffffffffffffffffffffffffffffffffffffffffff826106a0565b6106e786836106a0565b95508019841693508086168417925050509392505050565b6000819050919050565b600061072461071f61071a84610246565b6106ff565b610246565b9050919050565b6000819050919050565b61073e83610709565b61075261074a8261072b565b8484546106ad565b825550505050565b600090565b61076761075a565b610772818484610735565b505050565b5b818110156107965761078b60008261075f565b600181019050610778565b5050565b601f8211156107db576107ac8161067b565b6107b584610690565b810160208510156107c4578190505b6107d86107d085610690565b830182610777565b50505b505050565b600082821c905092915050565b60006107fe600019846008026107e0565b1980831691505092915050565b600061081783836107ed565b9150826002028217905092915050565b610830826102f6565b67ffffffffffffffff81111561084957610848610402565b5b61085382546105e7565b61085e82828561079a565b600060209050601f831160018114610891576000841561087f578287015190505b610889858261080b565b8655506108f1565b601f19841661089f8661067b565b60005b828110156108c7578489015182556001820191506020850194506020810190506108a2565b868310156108e457848901516108e0601f8916826107ed565b8355505b6001600288020188555050505b50505050505056fea2646970667358221220718acac93216d103bfba687d650a24b0a42f5637c099375d2e3cf52c7fb01ee864736f6c63430008110033",
  "immutableReferences": {},
  "source": "// SPDX-License-Identifier: MIT\npragma solidity >=0.4.22 <0.9.0;\n\ncontract A {\n\n  struct Student {\n    uint num;\n    string name;\n    uint score;\n  }\n\n  Student[] students;\n\n\n  function setStudent(string memory _name, uint _score) public {\n    students.push(Student(students.length+1, _name,_score));\n  }\n\n  function getStudent(uint _n) public view returns(Student memory){\n    return students[_n];\n  }\n\n  function getLen() public view returns(uint){\n    return students.length;\n  }\n}\n\ncontract B {\n\n  A a;\n  mapping(string => uint) s;\n  constructor(address _a){\n    a = A(_a);\n  }\n\n  function scoreBoard() public {\n    for(uint i=0;i<a.getLen();i++){\n        if(a.getStudent(i).score >= 80){\n          s[a.getStudent(i).name] = a.getStudent(i).score; \n        }\n    }\n  }\n\n  function getStudent(uint _n) public view returns(string memory, uint){\n    return (a.getStudent(_n).name,a.getStudent(_n).score);\n  }\n}\n",
  "sourcePath": "C:\\Users\\j\\Desktop\\truffle\\ex4\\contracts\\A.sol",
  "compiler": {
    "name": "solc",
    "version": "0.8.17+commit.8df45f5f.Emscripten.clang"
  },
  "schemaVersion": "3.4.11",
  "updatedAt": "2022-12-16T02:39:49.238Z",
  "devdoc": {
    "kind": "dev",
    "methods": {},
    "version": 1
  },
  "userdoc": {
    "kind": "user",
    "methods": {},
    "version": 1
  }
}