{
  "contractName": "B",
  "abi": [
    {
      "inputs": [
        {
          "internalType": "address",
          "name": "_a",
          "type": "address"
        }
      ],
      "stateMutability": "nonpayable",
      "type": "constructor"
    },
    {
      "inputs": [],
      "name": "scoreBoard",
      "outputs": [],
      "stateMutability": "nonpayable",
      "type": "function"
    },
    {
      "inputs": [
        {
          "internalType": "uint256",
          "name": "_n",
          "type": "uint256"
        }
      ],
      "name": "getStudent",
      "outputs": [
        {
          "internalType": "string",
          "name": "",
          "type": "string"
        },
        {
          "internalType": "uint256",
          "name": "",
          "type": "uint256"
        }
      ],
      "stateMutability": "view",
      "type": "function"
    }
  ],
  "bytecode": "0x608060405234801561001057600080fd5b50604051610a3e380380610a3e833981810160405281019061003291906100db565b806000806101000a81548173ffffffffffffffffffffffffffffffffffffffff021916908373ffffffffffffffffffffffffffffffffffffffff16021790555050610108565b600080fd5b600073ffffffffffffffffffffffffffffffffffffffff82169050919050565b60006100a88261007d565b9050919050565b6100b88161009d565b81146100c357600080fd5b50565b6000815190506100d5816100af565b92915050565b6000602082840312156100f1576100f0610078565b5b60006100ff848285016100c6565b91505092915050565b610927806101176000396000f3fe608060405234801561001057600080fd5b50600436106100365760003560e01c8063097399951461003b578063642f916314610045575b600080fd5b610043610076565b005b61005f600480360381019061005a91906104d5565b610337565b60405161006d9291906105a1565b60405180910390f35b60005b60008054906101000a900473ffffffffffffffffffffffffffffffffffffffff1673ffffffffffffffffffffffffffffffffffffffff16634a90be576040518163ffffffff1660e01b8152600401602060405180830381865afa1580156100e4573d6000803e3d6000fd5b505050506040513d601f19601f8201168201806040525081019061010891906105e6565b81101561033457605060008054906101000a900473ffffffffffffffffffffffffffffffffffffffff1673ffffffffffffffffffffffffffffffffffffffff1663642f9163836040518263ffffffff1660e01b815260040161016a9190610613565b600060405180830381865afa158015610187573d6000803e3d6000fd5b505050506040513d6000823e3d601f19601f820116820180604052508101906101b091906107de565b60400151106103215760008054906101000a900473ffffffffffffffffffffffffffffffffffffffff1673ffffffffffffffffffffffffffffffffffffffff1663642f9163826040518263ffffffff1660e01b81526004016102129190610613565b600060405180830381865afa15801561022f573d6000803e3d6000fd5b505050506040513d6000823e3d601f19601f8201168201806040525081019061025891906107de565b60400151600160008054906101000a900473ffffffffffffffffffffffffffffffffffffffff1673ffffffffffffffffffffffffffffffffffffffff1663642f9163846040518263ffffffff1660e01b81526004016102b79190610613565b600060405180830381865afa1580156102d4573d6000803e3d6000fd5b505050506040513d6000823e3d601f19601f820116820180604052508101906102fd91906107de565b6020015160405161030e9190610863565b9081526020016040518091039020819055505b808061032c906108a9565b915050610079565b50565b606060008060009054906101000a900473ffffffffffffffffffffffffffffffffffffffff1673ffffffffffffffffffffffffffffffffffffffff1663642f9163846040518263ffffffff1660e01b81526004016103959190610613565b600060405180830381865afa1580156103b2573d6000803e3d6000fd5b505050506040513d6000823e3d601f19601f820116820180604052508101906103db91906107de565b6020015160008054906101000a900473ffffffffffffffffffffffffffffffffffffffff1673ffffffffffffffffffffffffffffffffffffffff1663642f9163856040518263ffffffff1660e01b81526004016104389190610613565b600060405180830381865afa158015610455573d6000803e3d6000fd5b505050506040513d6000823e3d601f19601f8201168201806040525081019061047e91906107de565b6040015191509150915091565b6000604051905090565b600080fd5b600080fd5b6000819050919050565b6104b28161049f565b81146104bd57600080fd5b50565b6000813590506104cf816104a9565b92915050565b6000602082840312156104eb576104ea610495565b5b60006104f9848285016104c0565b91505092915050565b600081519050919050565b600082825260208201905092915050565b60005b8381101561053c578082015181840152602081019050610521565b60008484015250505050565b6000601f19601f8301169050919050565b600061056482610502565b61056e818561050d565b935061057e81856020860161051e565b61058781610548565b840191505092915050565b61059b8161049f565b82525050565b600060408201905081810360008301526105bb8185610559565b90506105ca6020830184610592565b9392505050565b6000815190506105e0816104a9565b92915050565b6000602082840312156105fc576105fb610495565b5b600061060a848285016105d1565b91505092915050565b60006020820190506106286000830184610592565b92915050565b600080fd5b7f4e487b7100000000000000000000000000000000000000000000000000000000600052604160045260246000fd5b61066b82610548565b810181811067ffffffffffffffff8211171561068a57610689610633565b5b80604052505050565b600061069d61048b565b90506106a98282610662565b919050565b600080fd5b600080fd5b600080fd5b600067ffffffffffffffff8211156106d8576106d7610633565b5b6106e182610548565b9050602081019050919050565b60006107016106fc846106bd565b610693565b90508281526020810184848401111561071d5761071c6106b8565b5b61072884828561051e565b509392505050565b600082601f830112610745576107446106b3565b5b81516107558482602086016106ee565b91505092915050565b6000606082840312156107745761077361062e565b5b61077e6060610693565b9050600061078e848285016105d1565b600083015250602082015167ffffffffffffffff8111156107b2576107b16106ae565b5b6107be84828501610730565b60208301525060406107d2848285016105d1565b60408301525092915050565b6000602082840312156107f4576107f3610495565b5b600082015167ffffffffffffffff8111156108125761081161049a565b5b61081e8482850161075e565b91505092915050565b600081905092915050565b600061083d82610502565b6108478185610827565b935061085781856020860161051e565b80840191505092915050565b600061086f8284610832565b915081905092915050565b7f4e487b7100000000000000000000000000000000000000000000000000000000600052601160045260246000fd5b60006108b48261049f565b91507fffffffffffffffffffffffffffffffffffffffffffffffffffffffffffffffff82036108e6576108e561087a565b5b60018201905091905056fea264697066735822122084b40c43d9d9ccb7b3a82bbfdb79a7c2ee7ed5e9fd5f763d6ec09614cff5a21e64736f6c63430008110033",
  "immutableReferences": {},
  "source": "// SPDX-License-Identifier: MIT\npragma solidity >=0.4.22 <0.9.0;\n\ncontract A {\n\n  struct Student {\n    uint num;\n    string name;\n    uint score;\n  }\n\n  Student[] students;\n\n\n  function setStudent(string memory _name, uint _score) public {\n    students.push(Student(students.length+1, _name,_score));\n  }\n\n  function getStudent(uint _n) public view returns(Student memory){\n    return students[_n];\n  }\n\n  function getLen() public view returns(uint){\n    return students.length;\n  }\n}\n\ncontract B {\n\n  A a;\n  mapping(string => uint) s;\n  constructor(address _a){\n    a = A(_a);\n  }\n\n  function scoreBoard() public {\n    for(uint i=0;i<a.getLen();i++){\n        if(a.getStudent(i).score >= 80){\n          s[a.getStudent(i).name] = a.getStudent(i).score; \n        }\n    }\n  }\n\n  function getStudent(uint _n) public view returns(string memory, uint){\n    return (a.getStudent(_n).name,a.getStudent(_n).score);\n  }\n}\n",
  "sourcePath": "C:\\Users\\j\\Desktop\\truffle\\ex4\\contracts\\A.sol",
  "compiler": {
    "name": "solc",
    "version": "0.8.17+commit.8df45f5f.Emscripten.clang"
  },
  "schemaVersion": "3.4.11",
  "updatedAt": "2022-12-16T02:39:49.255Z",
  "devdoc": {
    "kind": "dev",
    "methods": {},
    "version": 1
  },
  "userdoc": {
    "kind": "user",
    "methods": {},
    "version": 1
  }
}