{
  "contractName": "A",
  "abi": [
    {
      "inputs": [
        {
          "internalType": "uint256",
          "name": "a",
          "type": "uint256"
        },
        {
          "internalType": "uint256",
          "name": "b",
          "type": "uint256"
        },
        {
          "internalType": "uint256",
          "name": "c",
          "type": "uint256"
        }
      ],
      "name": "add",
      "outputs": [
        {
          "internalType": "uint256",
          "name": "",
          "type": "uint256"
        }
      ],
      "stateMutability": "pure",
      "type": "function",
      "constant": true
    }
  ],
  "bytecode": "0x608060405234801561001057600080fd5b506101d3806100206000396000f3fe608060405234801561001057600080fd5b506004361061002b5760003560e01c8063505fb46c14610030575b600080fd5b61004a600480360381019061004591906100bd565b610060565b604051610057919061011f565b60405180910390f35b600081838561006f9190610169565b6100799190610169565b90509392505050565b600080fd5b6000819050919050565b61009a81610087565b81146100a557600080fd5b50565b6000813590506100b781610091565b92915050565b6000806000606084860312156100d6576100d5610082565b5b60006100e4868287016100a8565b93505060206100f5868287016100a8565b9250506040610106868287016100a8565b9150509250925092565b61011981610087565b82525050565b60006020820190506101346000830184610110565b92915050565b7f4e487b7100000000000000000000000000000000000000000000000000000000600052601160045260246000fd5b600061017482610087565b915061017f83610087565b92508282019050808211156101975761019661013a565b5b9291505056fea2646970667358221220ea1a6f0d6815fa7818fdc1b0c813bbc138f05d1be15489979f54fc8fbb165fc564736f6c63430008110033",
  "immutableReferences": {},
  "source": "// SPDX-License-Identifier: MIT\npragma solidity >=0.4.22 <0.9.0;\n\ncontract A {\n\n  function add(uint a, uint b, uint c) public pure returns(uint){\n    return a+b+c;\n  }\n\n}\n",
  "sourcePath": "C:\\Users\\j\\Desktop\\truffle\\ex\\contracts\\A.sol",
  "compiler": {
    "name": "solc",
    "version": "0.8.17+commit.8df45f5f.Emscripten.clang"
  },
  "schemaVersion": "3.4.11",
  "updatedAt": "2022-12-14T00:53:33.768Z",
  "networkType": "ethereum",
  "devdoc": {
    "kind": "dev",
    "methods": {},
    "version": 1
  },
  "userdoc": {
    "kind": "user",
    "methods": {},
    "version": 1
  }
}