{
  "contractName": "B",
  "abi": [
    {
      "inputs": [
        {
          "internalType": "uint256",
          "name": "a",
          "type": "uint256"
        }
      ],
      "name": "add",
      "outputs": [
        {
          "internalType": "uint256",
          "name": "",
          "type": "uint256"
        }
      ],
      "stateMutability": "view",
      "type": "function",
      "constant": true
    },
    {
      "inputs": [],
      "name": "changeC",
      "outputs": [],
      "stateMutability": "nonpayable",
      "type": "function"
    }
  ],
  "bytecode": "0x608060405234801561001057600080fd5b506101c1806100206000396000f3fe608060405234801561001057600080fd5b50600436106100365760003560e01c80631003e2d21461003b5780638280181c1461006b575b600080fd5b610055600480360381019061005091906100d1565b610075565b604051610062919061010d565b60405180910390f35b61007361008c565b005b6000816000546100859190610157565b9050919050565b600a600081905550565b600080fd5b6000819050919050565b6100ae8161009b565b81146100b957600080fd5b50565b6000813590506100cb816100a5565b92915050565b6000602082840312156100e7576100e6610096565b5b60006100f5848285016100bc565b91505092915050565b6101078161009b565b82525050565b600060208201905061012260008301846100fe565b92915050565b7f4e487b7100000000000000000000000000000000000000000000000000000000600052601160045260246000fd5b60006101628261009b565b915061016d8361009b565b925082820190508082111561018557610184610128565b5b9291505056fea26469706673582212207d8bb6ef6e11c3a3c653489e7c344999787451cef7f8a36a3f58c6d12caf935864736f6c63430008110033",
  "immutableReferences": {},
  "source": "// SPDX-License-Identifier: MIT\npragma solidity >=0.4.22 <0.9.0;\n\ncontract B {\n\n  uint c;\n  function add(uint a) public view returns(uint){\n    return c+a;\n  }\n\n  function changeC() public {\n    c = 10;\n  }\n\n\n}\n",
  "sourcePath": "C:\\Users\\j\\Desktop\\truffle\\ex\\contracts\\B.sol",
  "compiler": {
    "name": "solc",
    "version": "0.8.17+commit.8df45f5f.Emscripten.clang"
  },
  "schemaVersion": "3.4.11",
  "updatedAt": "2022-12-14T00:53:39.308Z",
  "networkType": "ethereum",
  "devdoc": {
    "kind": "dev",
    "methods": {},
    "version": 1
  },
  "userdoc": {
    "kind": "user",
    "methods": {},
    "version": 1
  }
}