{
  "contractName": "BB",
  "abi": [
    {
      "inputs": [
        {
          "internalType": "uint256",
          "name": "a",
          "type": "uint256"
        },
        {
          "internalType": "uint256",
          "name": "b",
          "type": "uint256"
        }
      ],
      "name": "mul",
      "outputs": [
        {
          "internalType": "uint256",
          "name": "",
          "type": "uint256"
        }
      ],
      "stateMutability": "pure",
      "type": "function",
      "constant": true
    },
    {
      "inputs": [
        {
          "internalType": "uint256",
          "name": "d",
          "type": "uint256"
        }
      ],
      "name": "mul2",
      "outputs": [
        {
          "internalType": "uint256",
          "name": "",
          "type": "uint256"
        }
      ],
      "stateMutability": "view",
      "type": "function",
      "constant": true
    }
  ],
  "bytecode": "0x608060405234801561001057600080fd5b50610241806100206000396000f3fe608060405234801561001057600080fd5b50600436106100365760003560e01c8063771f34661461003b578063c8a4ac9c1461006b575b600080fd5b61005560048036038101906100509190610103565b61009b565b604051610062919061013f565b60405180910390f35b6100856004803603810190610080919061015a565b6100b2565b604051610092919061013f565b60405180910390f35b6000816000546100ab91906101c9565b9050919050565b600081836100c091906101c9565b905092915050565b600080fd5b6000819050919050565b6100e0816100cd565b81146100eb57600080fd5b50565b6000813590506100fd816100d7565b92915050565b600060208284031215610119576101186100c8565b5b6000610127848285016100ee565b91505092915050565b610139816100cd565b82525050565b60006020820190506101546000830184610130565b92915050565b60008060408385031215610171576101706100c8565b5b600061017f858286016100ee565b9250506020610190858286016100ee565b9150509250929050565b7f4e487b7100000000000000000000000000000000000000000000000000000000600052601160045260246000fd5b60006101d4826100cd565b91506101df836100cd565b92508282026101ed816100cd565b915082820484148315176102045761020361019a565b5b509291505056fea264697066735822122080c0627a7f106f6beb924decad6ac382e59b7b22d9d5128065758499bf7d3aa064736f6c63430008110033",
  "immutableReferences": {},
  "source": "// SPDX-License-Identifier: MIT\npragma solidity >=0.4.22 <0.9.0;\n\ncontract AA {\n  uint number;\n\n  function changeNumber(uint _n) public returns(uint){\n    number = _n;\n    return number;\n  }\n\n  function getNumber() public view returns(uint){\n    return number;\n  }\n\n  function add(uint a,uint b) public pure returns(uint){\n    return a+b;\n  }\n\n}\n\n\ncontract BB {\n  function mul(uint a, uint b) public pure returns(uint){\n    return a*b;\n  }\n\n\n  uint c;\n  function mul2(uint d) public view returns(uint){\n    return c*d;\n  }\n}",
  "sourcePath": "C:\\Users\\j\\Desktop\\truffle\\ex3\\contracts\\AA.sol",
  "compiler": {
    "name": "solc",
    "version": "0.8.17+commit.8df45f5f.Emscripten.clang"
  },
  "schemaVersion": "3.4.11",
  "updatedAt": "2022-12-15T04:50:17.715Z",
  "networkType": "ethereum",
  "devdoc": {
    "kind": "dev",
    "methods": {},
    "version": 1
  },
  "userdoc": {
    "kind": "user",
    "methods": {},
    "version": 1
  }
}