{
  "contractName": "A",
  "abi": [
    {
      "inputs": [],
      "name": "a",
      "outputs": [
        {
          "internalType": "uint256",
          "name": "",
          "type": "uint256"
        }
      ],
      "stateMutability": "view",
      "type": "function",
      "constant": true
    },
    {
      "inputs": [],
      "name": "mul",
      "outputs": [
        {
          "internalType": "uint256",
          "name": "",
          "type": "uint256"
        }
      ],
      "stateMutability": "view",
      "type": "function",
      "constant": true
    },
    {
      "inputs": [
        {
          "internalType": "uint256",
          "name": "n",
          "type": "uint256"
        }
      ],
      "name": "changeA",
      "outputs": [],
      "stateMutability": "nonpayable",
      "type": "function"
    }
  ],
  "bytecode": "0x608060405234801561001057600080fd5b50610346806100206000396000f3fe608060405234801561001057600080fd5b50600436106100415760003560e01c80630dbe671f1461004657806358931c4614610064578063fcbfcc7114610082575b600080fd5b61004e61009e565b60405161005b91906100dd565b60405180910390f35b61006c6100a4565b60405161007991906100dd565b60405180910390f35b61009c60048036038101906100979190610129565b6100ba565b005b60005481565b600060036000546100b591906102c5565b905090565b8060008190555050565b6000819050919050565b6100d7816100c4565b82525050565b60006020820190506100f260008301846100ce565b92915050565b600080fd5b610106816100c4565b811461011157600080fd5b50565b600081359050610123816100fd565b92915050565b60006020828403121561013f5761013e6100f8565b5b600061014d84828501610114565b91505092915050565b7f4e487b7100000000000000000000000000000000000000000000000000000000600052601160045260246000fd5b60008160011c9050919050565b6000808291508390505b60018511156101dc578086048111156101b8576101b7610156565b5b60018516156101c75780820291505b80810290506101d585610185565b945061019c565b94509492505050565b6000826101f557600190506102b1565b8161020357600090506102b1565b8160018114610219576002811461022357610252565b60019150506102b1565b60ff84111561023557610234610156565b5b8360020a91508482111561024c5761024b610156565b5b506102b1565b5060208310610133831016604e8410600b84101617156102875782820a90508381111561028257610281610156565b5b6102b1565b6102948484846001610192565b925090508184048111156102ab576102aa610156565b5b81810290505b9392505050565b600060ff82169050919050565b60006102d0826100c4565b91506102db836102b8565b92506103087fffffffffffffffffffffffffffffffffffffffffffffffffffffffffffffffff84846101e5565b90509291505056fea26469706673582212202dea5faed4c852494decfc61a7e5496e48749b36f0f6364f4de05ad535044fcf64736f6c63430008110033",
  "immutableReferences": {},
  "source": "// SPDX-License-Identifier: MIT\npragma solidity >=0.4.22 <0.9.0;\n\ncontract A {\n  uint public a;\n\n  function mul() public view returns(uint){\n    return a**3;\n  }\n\n\n  function changeA(uint n) public {\n    a = n;\n  }\n}\n",
  "sourcePath": "C:\\Users\\j\\Desktop\\truffle\\ex1\\contracts\\A.sol",
  "compiler": {
    "name": "solc",
    "version": "0.8.17+commit.8df45f5f.Emscripten.clang"
  },
  "schemaVersion": "3.4.11",
  "updatedAt": "2022-12-14T06:07:39.585Z",
  "networkType": "ethereum",
  "devdoc": {
    "kind": "dev",
    "methods": {},
    "version": 1
  },
  "userdoc": {
    "kind": "user",
    "methods": {},
    "version": 1
  }
}