{
  "contractName": "C",
  "abi": [
    {
      "inputs": [
        {
          "internalType": "int256",
          "name": "n",
          "type": "int256"
        }
      ],
      "name": "check",
      "outputs": [],
      "stateMutability": "nonpayable",
      "type": "function"
    },
    {
      "inputs": [],
      "name": "getArray",
      "outputs": [
        {
          "internalType": "int256[]",
          "name": "",
          "type": "int256[]"
        }
      ],
      "stateMutability": "view",
      "type": "function"
    }
  ],
  "bytecode": "0x608060405234801561001057600080fd5b506103e7806100206000396000f3fe608060405234801561001057600080fd5b50600436106100365760003560e01c80639943d6691461003b578063d504ea1d14610057575b600080fd5b61005560048036038101906100509190610232565b610075565b005b61005f61019f565b60405161006c919061031d565b60405180910390f35b600081905060005b60011561009c57600582610091919061036e565b91506000821361007d575b600082036100d2576001905060008290806001815401808255809150506001900390600052602060002001600090919091909150555b6000151581151503610138578291505b600115610101576009826100f6919061036e565b9150600082136100e2575b60008203610137576001905060008290806001815401808255809150506001900390600052602060002001600090919091909150555b5b600015158115150361019a578291505b60011561016757600b8261015c919061036e565b915060008213610148575b600082036101995760008290806001815401808255809150506001900390600052602060002001600090919091909150555b5b505050565b606060008054806020026020016040519081016040528092919081815260200182805480156101ed57602002820191906000526020600020905b8154815260200190600101908083116101d9575b5050505050905090565b600080fd5b6000819050919050565b61020f816101fc565b811461021a57600080fd5b50565b60008135905061022c81610206565b92915050565b600060208284031215610248576102476101f7565b5b60006102568482850161021d565b91505092915050565b600081519050919050565b600082825260208201905092915050565b6000819050602082019050919050565b610294816101fc565b82525050565b60006102a6838361028b565b60208301905092915050565b6000602082019050919050565b60006102ca8261025f565b6102d4818561026a565b93506102df8361027b565b8060005b838110156103105781516102f7888261029a565b9750610302836102b2565b9250506001810190506102e3565b5085935050505092915050565b6000602082019050818103600083015261033781846102bf565b905092915050565b7f4e487b7100000000000000000000000000000000000000000000000000000000600052601160045260246000fd5b6000610379826101fc565b9150610384836101fc565b92508282039050818112600084121682821360008512151617156103ab576103aa61033f565b5b9291505056fea26469706673582212206facc4ac22d9a91356def301d5ef652c8a2fd4c2ebdbf584e8e1cbf33153d27864736f6c63430008110033",
  "immutableReferences": {},
  "source": "// SPDX-License-Identifier: MIT\npragma solidity >=0.4.22 <0.9.0;\n\ncontract C {\n  int[] array;\n  \n  function check(int n) public {\n    int temp = n;\n    bool flag;\n    while(true){\n      temp = temp-5;\n\n      if(temp<=0){\n        break;\n      }\n    }\n\n    if(temp==0){\n      flag = true;\n      array.push(temp);\n    }\n\n    if(flag == false){\n        temp = n;\n        while(true){\n        temp = temp-9;\n\n        if(temp<=0){\n          break;\n        }\n      }\n\n      if(temp==0){\n        flag = true;\n        array.push(temp);\n      }\n    }\n\n\n    if(flag == false){\n        temp = n;\n        while(true){\n        temp = temp-11;\n\n        if(temp<=0){\n          break;\n        }\n      }\n\n      if(temp==0){\n        array.push(temp);\n      }\n    }\n\n  }\n\n  function getArray() public view returns(int[] memory){\n    return array;\n  }\n}\n",
  "sourcePath": "C:\\Users\\j\\Desktop\\truffle\\ex1\\contracts\\C.sol",
  "compiler": {
    "name": "solc",
    "version": "0.8.17+commit.8df45f5f.Emscripten.clang"
  },
  "schemaVersion": "3.4.11",
  "updatedAt": "2022-12-14T06:06:29.421Z",
  "devdoc": {
    "kind": "dev",
    "methods": {},
    "version": 1
  },
  "userdoc": {
    "kind": "user",
    "methods": {},
    "version": 1
  }
}