{
  "contractName": "D",
  "abi": [
    {
      "inputs": [
        {
          "internalType": "address",
          "name": "_aA",
          "type": "address"
        },
        {
          "internalType": "address",
          "name": "_aB",
          "type": "address"
        }
      ],
      "stateMutability": "nonpayable",
      "type": "constructor"
    },
    {
      "inputs": [],
      "name": "a",
      "outputs": [
        {
          "internalType": "contract A",
          "name": "",
          "type": "address"
        }
      ],
      "stateMutability": "view",
      "type": "function"
    },
    {
      "inputs": [],
      "name": "b",
      "outputs": [
        {
          "internalType": "contract B",
          "name": "",
          "type": "address"
        }
      ],
      "stateMutability": "view",
      "type": "function"
    },
    {
      "inputs": [],
      "name": "add",
      "outputs": [
        {
          "internalType": "uint256",
          "name": "",
          "type": "uint256"
        }
      ],
      "stateMutability": "view",
      "type": "function"
    }
  ],
  "bytecode": "0x608060405234801561001057600080fd5b506040516105893803806105898339818101604052810190610032919061011d565b806000806101000a81548173ffffffffffffffffffffffffffffffffffffffff021916908373ffffffffffffffffffffffffffffffffffffffff16021790555081600160006101000a81548173ffffffffffffffffffffffffffffffffffffffff021916908373ffffffffffffffffffffffffffffffffffffffff160217905550505061015d565b600080fd5b600073ffffffffffffffffffffffffffffffffffffffff82169050919050565b60006100ea826100bf565b9050919050565b6100fa816100df565b811461010557600080fd5b50565b600081519050610117816100f1565b92915050565b60008060408385031215610134576101336100ba565b5b600061014285828601610108565b925050602061015385828601610108565b9150509250929050565b61041d8061016c6000396000f3fe608060405234801561001057600080fd5b50600436106100415760003560e01c80630dbe671f146100465780634df7e3d0146100645780634f2be91f14610082575b600080fd5b61004e6100a0565b60405161005b919061029b565b60405180910390f35b61006c6100c6565b60405161007991906102d7565b60405180910390f35b61008a6100ea565b604051610097919061030b565b60405180910390f35b600160009054906101000a900473ffffffffffffffffffffffffffffffffffffffff1681565b60008054906101000a900473ffffffffffffffffffffffffffffffffffffffff1681565b60008060009054906101000a900473ffffffffffffffffffffffffffffffffffffffff1673ffffffffffffffffffffffffffffffffffffffff16634df7e3d06040518163ffffffff1660e01b8152600401602060405180830381865afa158015610158573d6000803e3d6000fd5b505050506040513d601f19601f8201168201806040525081019061017c9190610357565b600160009054906101000a900473ffffffffffffffffffffffffffffffffffffffff1673ffffffffffffffffffffffffffffffffffffffff16630dbe671f6040518163ffffffff1660e01b8152600401602060405180830381865afa1580156101e9573d6000803e3d6000fd5b505050506040513d601f19601f8201168201806040525081019061020d9190610357565b61021791906103b3565b905090565b600073ffffffffffffffffffffffffffffffffffffffff82169050919050565b6000819050919050565b600061026161025c6102578461021c565b61023c565b61021c565b9050919050565b600061027382610246565b9050919050565b600061028582610268565b9050919050565b6102958161027a565b82525050565b60006020820190506102b0600083018461028c565b92915050565b60006102c182610268565b9050919050565b6102d1816102b6565b82525050565b60006020820190506102ec60008301846102c8565b92915050565b6000819050919050565b610305816102f2565b82525050565b600060208201905061032060008301846102fc565b92915050565b600080fd5b610334816102f2565b811461033f57600080fd5b50565b6000815190506103518161032b565b92915050565b60006020828403121561036d5761036c610326565b5b600061037b84828501610342565b91505092915050565b7f4e487b7100000000000000000000000000000000000000000000000000000000600052601160045260246000fd5b60006103be826102f2565b91506103c9836102f2565b92508282019050808211156103e1576103e0610384565b5b9291505056fea2646970667358221220f71de2f2f02b514676e5eefecaeedddba98104ea6870094e9d74ef04d8ca6a2864736f6c63430008110033",
  "immutableReferences": {},
  "source": "// SPDX-License-Identifier: MIT\npragma solidity >=0.4.22 <0.9.0;\n\nimport \"./B.sol\";\nimport \"./A.sol\";\ncontract D {\n  B public b;\n  A public a;\n\n  constructor(address _aA, address _aB){\n    b = B(_aB);\n    a = A(_aA);\n  }\n\n  function add() public view returns(uint){\n    return a.a()+b.b();\n  }\n}\n",
  "sourcePath": "C:\\Users\\j\\Desktop\\truffle\\ex1\\contracts\\D.sol",
  "compiler": {
    "name": "solc",
    "version": "0.8.17+commit.8df45f5f.Emscripten.clang"
  },
  "schemaVersion": "3.4.11",
  "updatedAt": "2022-12-14T06:06:29.458Z",
  "devdoc": {
    "kind": "dev",
    "methods": {},
    "version": 1
  },
  "userdoc": {
    "kind": "user",
    "methods": {},
    "version": 1
  }
}